{
    "_format": "hh-sol-artifact-1",
    "contractName": "PhotoFinder",
    "sourceName": "contracts/PhotoFinder.sol",
    "abi": [
        {
            "inputs": [],
            "stateMutability": "nonpayable",
            "type": "constructor"
        },
        {
            "inputs": [
                {
                    "internalType": "address",
                    "name": "owner",
                    "type": "address"
                }
            ],
            "name": "OwnableInvalidOwner",
            "type": "error"
        },
        {
            "inputs": [
                {
                    "internalType": "address",
                    "name": "account",
                    "type": "address"
                }
            ],
            "name": "OwnableUnauthorizedAccount",
            "type": "error"
        },
        {
            "anonymous": false,
            "inputs": [
                {
                    "indexed": true,
                    "internalType": "address",
                    "name": "previousOwner",
                    "type": "address"
                },
                {
                    "indexed": true,
                    "internalType": "address",
                    "name": "newOwner",
                    "type": "address"
                }
            ],
            "name": "OwnershipTransferred",
            "type": "event"
        },
        {
            "anonymous": false,
            "inputs": [
                {
                    "indexed": true,
                    "internalType": "address",
                    "name": "user",
                    "type": "address"
                },
                {
                    "indexed": false,
                    "internalType": "uint256",
                    "name": "amount",
                    "type": "uint256"
                }
            ],
            "name": "SearchPaid",
            "type": "event"
        },
        {
            "inputs": [],
            "name": "HOLDER_PRICE",
            "outputs": [
                {
                    "internalType": "uint256",
                    "name": "",
                    "type": "uint256"
                }
            ],
            "stateMutability": "view",
            "type": "function"
        },
        {
            "inputs": [],
            "name": "REGULAR_PRICE",
            "outputs": [
                {
                    "internalType": "uint256",
                    "name": "",
                    "type": "uint256"
                }
            ],
            "stateMutability": "view",
            "type": "function"
        },
        {
            "inputs": [
                {
                    "internalType": "address",
                    "name": "user",
                    "type": "address"
                }
            ],
            "name": "isPackHolder",
            "outputs": [
                {
                    "internalType": "bool",
                    "name": "",
                    "type": "bool"
                }
            ],
            "stateMutability": "view",
            "type": "function"
        },
        {
            "inputs": [],
            "name": "owner",
            "outputs": [
                {
                    "internalType": "address",
                    "name": "",
                    "type": "address"
                }
            ],
            "stateMutability": "view",
            "type": "function"
        },
        {
            "inputs": [
                {
                    "internalType": "uint256",
                    "name": "",
                    "type": "uint256"
                }
            ],
            "name": "packContracts",
            "outputs": [
                {
                    "internalType": "address",
                    "name": "",
                    "type": "address"
                }
            ],
            "stateMutability": "view",
            "type": "function"
        },
        {
            "inputs": [],
            "name": "payForSearch",
            "outputs": [],
            "stateMutability": "payable",
            "type": "function"
        },
        {
            "inputs": [],
            "name": "renounceOwnership",
            "outputs": [],
            "stateMutability": "nonpayable",
            "type": "function"
        },
        {
            "inputs": [
                {
                    "internalType": "address[]",
                    "name": "_packContracts",
                    "type": "address[]"
                }
            ],
            "name": "setPackContracts",
            "outputs": [],
            "stateMutability": "nonpayable",
            "type": "function"
        },
        {
            "inputs": [
                {
                    "internalType": "address",
                    "name": "user",
                    "type": "address"
                },
                {
                    "internalType": "bool",
                    "name": "status",
                    "type": "bool"
                }
            ],
            "name": "setWhitelisted",
            "outputs": [],
            "stateMutability": "nonpayable",
            "type": "function"
        },
        {
            "inputs": [
                {
                    "internalType": "address",
                    "name": "newOwner",
                    "type": "address"
                }
            ],
            "name": "transferOwnership",
            "outputs": [],
            "stateMutability": "nonpayable",
            "type": "function"
        },
        {
            "inputs": [
                {
                    "internalType": "address",
                    "name": "",
                    "type": "address"
                }
            ],
            "name": "whitelisted",
            "outputs": [
                {
                    "internalType": "bool",
                    "name": "",
                    "type": "bool"
                }
            ],
            "stateMutability": "view",
            "type": "function"
        },
        {
            "inputs": [],
            "name": "withdraw",
            "outputs": [],
            "stateMutability": "nonpayable",
            "type": "function"
        }
    ],
    "bytecode": "0x608060405260405180604001604052807369b4e2bd6d5c5eeeb7e152fb9bc9b6c4364fa41073ffffffffffffffffffffffffffffffffffffffff1673ffffffffffffffffffffffffffffffffffffffff1681526020017327479dd41a85002f5987b8c7e999ca0e07dba81773ffffffffffffffffffffffffffffffffffffffff1673ffffffffffffffffffffffffffffffffffffffff1681525060019060026100a992919061026f565b503480156100b657600080fd5b5033600073ffffffffffffffffffffffffffffffffffffffff168173ffffffffffffffffffffffffffffffffffffffff160361012a5760006040517f1e4fbdf70000000000000000000000000000000000000000000000000000000081526004016101219190610357565b60405180910390fd5b610139816101ab60201b60201c565b5060016002600073b68918211ad90462fbcf75b77a30bf76515422ce73ffffffffffffffffffffffffffffffffffffffff1673ffffffffffffffffffffffffffffffffffffffff16815260200190815260200160002060006101000a81548160ff021916908315150217905550610372565b60008060009054906101000a900473ffffffffffffffffffffffffffffffffffffffff169050816000806101000a81548173ffffffffffffffffffffffffffffffffffffffff021916908373ffffffffffffffffffffffffffffffffffffffff1602179055508173ffffffffffffffffffffffffffffffffffffffff168173ffffffffffffffffffffffffffffffffffffffff167f8be0079c531659141344cd1fd0a4f28419497f9722a3daafe3b4186f6b6457e060405160405180910390a35050565b8280548282559060005260206000209081019282156102e8579160200282015b828111156102e75782518260006101000a81548173ffffffffffffffffffffffffffffffffffffffff021916908373ffffffffffffffffffffffffffffffffffffffff1602179055509160200191906001019061028f565b5b5090506102f591906102f9565b5090565b5b808211156103125760008160009055506001016102fa565b5090565b600073ffffffffffffffffffffffffffffffffffffffff82169050919050565b600061034182610316565b9050919050565b61035181610336565b82525050565b600060208201905061036c6000830184610348565b92915050565b610d54806103816000396000f3fe6080604052600436106100a75760003560e01c80639281aa0b116100645780639281aa0b14610177578063c6313ac9146101a0578063d936547e146101cb578063ec8d2c4914610208578063f2fde38b14610245578063fde43a191461026e576100a7565b80631f762c0c146100ac5780633ccfd60b146100b657806346d23280146100cd578063715018a61461010a57806374ea80d8146101215780638da5cb5b1461014c575b600080fd5b6100b4610297565b005b3480156100c257600080fd5b506100cb6103ae565b005b3480156100d957600080fd5b506100f460048036038101906100ef9190610995565b610406565b60405161010191906109dd565b60405180910390f35b34801561011657600080fd5b5061011f610563565b005b34801561012d57600080fd5b50610136610577565b6040516101439190610a11565b60405180910390f35b34801561015857600080fd5b50610161610582565b60405161016e9190610a3b565b60405180910390f35b34801561018357600080fd5b5061019e60048036038101906101999190610a82565b6105ab565b005b3480156101ac57600080fd5b506101b561060e565b6040516101c29190610a11565b60405180910390f35b3480156101d757600080fd5b506101f260048036038101906101ed9190610995565b61061a565b6040516101ff91906109dd565b60405180910390f35b34801561021457600080fd5b5061022f600480360381019061022a9190610aee565b61063a565b60405161023c9190610a3b565b60405180910390f35b34801561025157600080fd5b5061026c60048036038101906102679190610995565b610679565b005b34801561027a57600080fd5b5061029560048036038101906102909190610b80565b6106ff565b005b60006102a233610406565b6102b457670de0b6b3a76400006102bd565b662386f26fc100005b905080341015610302576040517f08c379a00000000000000000000000000000000000000000000000000000000081526004016102f990610c2a565b60405180910390fd5b8034111561035d573373ffffffffffffffffffffffffffffffffffffffff166108fc82346103309190610c79565b9081150290604051600060405180830381858888f1935050505015801561035b573d6000803e3d6000fd5b505b3373ffffffffffffffffffffffffffffffffffffffff167ffb75c538d96d25b2c4fce14fab0676d6a33386bc8ed1647b456b0dfe3b336e33826040516103a39190610a11565b60405180910390a250565b6103b661071d565b6103be610582565b73ffffffffffffffffffffffffffffffffffffffff166108fc479081150290604051600060405180830381858888f19350505050158015610403573d6000803e3d6000fd5b50565b6000600260008373ffffffffffffffffffffffffffffffffffffffff1673ffffffffffffffffffffffffffffffffffffffff16815260200190815260200160002060009054906101000a900460ff1615610463576001905061055e565b60005b6001805490508110156105585760006001828154811061048957610488610cad565b5b9060005260206000200160009054906101000a900473ffffffffffffffffffffffffffffffffffffffff1690508073ffffffffffffffffffffffffffffffffffffffff166370a08231856040518263ffffffff1660e01b81526004016104ef9190610a3b565b602060405180830381865afa92505050801561052957506040513d601f19601f820116820180604052508101906105269190610cf1565b60015b610533575061054b565b6000811115610548576001935050505061055e565b50505b8080600101915050610466565b50600090505b919050565b61056b61071d565b61057560006107a4565b565b662386f26fc1000081565b60008060009054906101000a900473ffffffffffffffffffffffffffffffffffffffff16905090565b6105b361071d565b80600260008473ffffffffffffffffffffffffffffffffffffffff1673ffffffffffffffffffffffffffffffffffffffff16815260200190815260200160002060006101000a81548160ff0219169083151502179055505050565b670de0b6b3a764000081565b60026020528060005260406000206000915054906101000a900460ff1681565b6001818154811061064a57600080fd5b906000526020600020016000915054906101000a900473ffffffffffffffffffffffffffffffffffffffff1681565b61068161071d565b600073ffffffffffffffffffffffffffffffffffffffff168173ffffffffffffffffffffffffffffffffffffffff16036106f35760006040517f1e4fbdf70000000000000000000000000000000000000000000000000000000081526004016106ea9190610a3b565b60405180910390fd5b6106fc816107a4565b50565b61070761071d565b818160019190610718929190610870565b505050565b610725610868565b73ffffffffffffffffffffffffffffffffffffffff16610743610582565b73ffffffffffffffffffffffffffffffffffffffff16146107a257610766610868565b6040517f118cdaa70000000000000000000000000000000000000000000000000000000081526004016107999190610a3b565b60405180910390fd5b565b60008060009054906101000a900473ffffffffffffffffffffffffffffffffffffffff169050816000806101000a81548173ffffffffffffffffffffffffffffffffffffffff021916908373ffffffffffffffffffffffffffffffffffffffff1602179055508173ffffffffffffffffffffffffffffffffffffffff168173ffffffffffffffffffffffffffffffffffffffff167f8be0079c531659141344cd1fd0a4f28419497f9722a3daafe3b4186f6b6457e060405160405180910390a35050565b600033905090565b8280548282559060005260206000209081019282156108ff579160200282015b828111156108fe57823573ffffffffffffffffffffffffffffffffffffffff168260006101000a81548173ffffffffffffffffffffffffffffffffffffffff021916908373ffffffffffffffffffffffffffffffffffffffff16021790555091602001919060010190610890565b5b50905061090c9190610910565b5090565b5b80821115610929576000816000905550600101610911565b5090565b600080fd5b600080fd5b600073ffffffffffffffffffffffffffffffffffffffff82169050919050565b600061096282610937565b9050919050565b61097281610957565b811461097d57600080fd5b50565b60008135905061098f81610969565b92915050565b6000602082840312156109ab576109aa61092d565b5b60006109b984828501610980565b91505092915050565b60008115159050919050565b6109d7816109c2565b82525050565b60006020820190506109f260008301846109ce565b92915050565b6000819050919050565b610a0b816109f8565b82525050565b6000602082019050610a266000830184610a02565b92915050565b610a3581610957565b82525050565b6000602082019050610a506000830184610a2c565b92915050565b610a5f816109c2565b8114610a6a57600080fd5b50565b600081359050610a7c81610a56565b92915050565b60008060408385031215610a9957610a9861092d565b5b6000610aa785828601610980565b9250506020610ab885828601610a6d565b9150509250929050565b610acb816109f8565b8114610ad657600080fd5b50565b600081359050610ae881610ac2565b92915050565b600060208284031215610b0457610b0361092d565b5b6000610b1284828501610ad9565b91505092915050565b600080fd5b600080fd5b600080fd5b60008083601f840112610b4057610b3f610b1b565b5b8235905067ffffffffffffffff811115610b5d57610b5c610b20565b5b602083019150836020820283011115610b7957610b78610b25565b5b9250929050565b60008060208385031215610b9757610b9661092d565b5b600083013567ffffffffffffffff811115610bb557610bb4610932565b5b610bc185828601610b2a565b92509250509250929050565b600082825260208201905092915050565b7f496e73756666696369656e74207061796d656e74000000000000000000000000600082015250565b6000610c14601483610bcd565b9150610c1f82610bde565b602082019050919050565b60006020820190508181036000830152610c4381610c07565b9050919050565b7f4e487b7100000000000000000000000000000000000000000000000000000000600052601160045260246000fd5b6000610c84826109f8565b9150610c8f836109f8565b9250828203905081811115610ca757610ca6610c4a565b5b92915050565b7f4e487b7100000000000000000000000000000000000000000000000000000000600052603260045260246000fd5b600081519050610ceb81610ac2565b92915050565b600060208284031215610d0757610d0661092d565b5b6000610d1584828501610cdc565b9150509291505056fea26469706673582212203a2245e300199f32fabd31060e4fe324fcb0d92bab7392ae562e3f6a680bb83b64736f6c634300081c0033",
    "linkReferences": {},
    "deployedLinkReferences": {}
}